:020000040800F2
:100000000000022079320008E1050008E50500083B
:10001000E9050008ED050008F105000800000000F2
:10002000000000000000000000000000F5050008CE
:10003000F905000800000000FD05000801060008A1
:10004000D9320008D9320008D9320008D932000864
:10005000D9320008D9320008D9320008D932000854
:10006000D9320008D9320008D9320008D932000844
:10007000D9320008D9320008D9320008D932000834
:10008000D9320008D9320008D9320008D932000824
:10009000D9320008D9320008D9320008D932000814
:1000A000D9320008D9320008D9320008D932000804
:1000B000D9320008D9320008D9320008D9320008F4
:1000C000D9320008D9320008D9320008D9320008E4
:1000D000D9320008D9320008D9320008D9320008D4
:1000E000D9320008D9320008D9320008D9320008C4
:1000F000D9320008D9320008D9320008D9320008B4
:10010000D9320008D9320008D9320008D9320008A3
:10011000D9320008D9320008D9320008D932000893
:10012000D9320008D9320008D9320008D932000883
:10013000D9320008D9320008D9320008D932000873
:10014000D9320008D9320008D9320008D932000863
:10015000D9320008D9320008D9320008D932000853
:10016000D9320008D9320008D9320008D932000843
:10017000D9320008D9320008D9320008D932000833
:08018000D9320008D932000851
:1001880010B5054C237833B9044810B10448AFF3CF
:1001980000800121217010BD6004002000000000D3
:1001A800403D000808B5064B1BB106480649AFF3A9
:1001B80000800648016811B1054A02B1904708BDA0
:1001C80000000000403D0008640400205C0400209A
:1001D80000000000154B002B08BF134B9D46A3F5EC
:1001E800803A00218B460F461348144A121A03F02E
:1001F800AFF90F4B002B00D098470E4B002B00D0C7
:1002080098470020002104460D4600200C49002292
:10021800002303F0C5F803F051F92046294602F0FF
:100228006BFE03F013F900BF000008000000000097
:100238000000000000000000600400209C04002072
:100248007534000830B585B000234024802207218A
:1002580002A88DF803308DF808408DF809208DF834
:100268000A108DF80B308DF80C30102501F056FE71
:1002780001A820238DF804408DF805508DF806302C
:1002880001F0A8FF1F48232404600268002AFCD15B
:1002980004AC072104F80D1D01222221204601F09B
:1002A800F9FD70252046382101228DF8035001F010
:1002B800F1FDAA2320463B2101228DF803300A25AF
:1002C80001F0E8FD20463C2101228DF8035001F0A1
:1002D800E1FD032320463D2101227F258DF80330CF
:1002E80001F0D8FD20463E2101228DF8035001F08F
:1002F800D1FD20463F2101228DF8035001F0CAFDAF
:1003080005B030BD7C0400204FF480630128C4F29E
:10031800000306D0022806D003280CBFD96319644D
:100328007047596370479963704700BF4FF4006383
:100338000128C4F2000306D0022806D003280CBF07
:10034800D96319647047596370479963704700BF50
:1003580070B54FF4806486B0C4F2000405460121EC
:10036800022000F0BDFB2046294600F021FF0125B0
:100378006023002601A92046ADF80430ADF80650E8
:100388000396ADF8106000F0DBFF2046082101F06D
:1003980053F901A92046ADF80650039601F068F814
:1003A8002046082101F05AF901A92046ADF8065067
:1003B800039601F0A9F82046082101F057F92046D4
:1003C800294600F089FF2046294600F0ABFF06B019
:1003D80070BD00BF70B54FF4006486B0C4F200046D
:1003E80005460121042000F07BFB2046294600F049
:1003F800DFFE01256023002601A92046ADF8043060
:10040800ADF806500396ADF8106000F099FF20464D
:10041800082101F011F901A92046ADF8065003960C
:1004280000F0D8FF2046082101F00EF901A9204666
:10043800ADF80650039601F01BF82046082101F09C
:100448000DF901A92046ADF80650039601F05CF8B5
:100458002046082101F00AF92046294600F03CFF11
:100468002046294600F05EFF06B070BD00B540F298
:100478001403C2F2000385B0196802904BF22322DC
:10048800480AC0F24C02A2FB0013DA09511E0023ED
:1004980001A8ADF80410ADF80C30ADF80630FFF740
:1004A80057FF01A8FFF796FF05B000BD00B508206B
:1004B80083B0012100F0EAFA202200924FF4406054
:1004C800012200238DF80420C4F2020003226946A9
:1004D8008DF806308DF805208DF8073000F07CFC8B
:1004E80003B000BD30B5082083B001214FF440644B
:1004F80000F0CCFAC4F2020400224FF47043022543
:100508006946204600938DF80620032301228DF8C2
:1005180005308DF807208DF8045000F05DFC20466A
:100528000E212A4600F042FD20460C212A4600F002
:100538003DFD20460F212A4600F038FD20460D21BA
:100548002A4600F033FD03B030BD00BF30B50420AB
:1005580083B001214FF4006400F098FAC4F2020459
:1005680000224FF4507302256946204600938DF807
:100578000620032301228DF805308DF807208DF819
:10058800045000F029FC204606212A4600F00EFD02
:10059800204608212A4600F009FD204609212A465E
:1005A80000F004FD03B030BD82B0044A0190019B05
:1005B800136010680028FCD102B070477C0400204A
:1005C800034B1A6812B11868411E1960704700BFC2
:1005D8007C040020FEE700BF704700BFFEE700BFB5
:1005E800FEE700BFFEE700BFFEE700BF704700BFA1
:1005F800704700BF704700BFFFF7E2BF4FF460537A
:10060800C4F202030022196841F0010018609A60E0
:10061800186843F2100120F0847020F48030C2F290
:10062800004118605960196882B021F48020186070
:10063800DA60009201921A6842F480311960184613
:1006480003E00099B1F5A06F09D0036803F4003204
:10065800019200994B1C0093019A002AF1D04FF4A3
:100668006050C4F20200036813F400320DD0012177
:100678000191019801280CD04FF46D43CEF200038C
:100688004FF00061996002B070470192019801280B
:10069800F2D14FF46053C4F202034FF4E042196CF4
:1006A800C4F2000241F080501864116841F480409F
:1006B80010609A689A60996841F400409860996857
:1006C80045F2084241F4A050C0F2407298605A6066
:1006D800196841F080721A60184601684FF4605337
:1006E8008A01C4F20203F8D54FF47052C4F2020230
:1006F80040F205601060996821F003029A609868DA
:1007080040F0020199609A6802F00C000828FAD1BA
:10071800B2E700BF4FF46053C4F202039A6802F0D4
:100728000C00042812D0082815D04FF41051C0F23C
:10073800F4014FF46050C4F20200184B8268C2F30F
:1007480003101A5C21FA02F11961704747F640015B
:10075800C0F27D11EDE758685A6810F4800F5868A8
:1007680002F03F0114BF47F640034FF41053C0F3A3
:1007780088124FF4605014BFC0F27D13C0F2F40326
:10078800C4F20200B3FBF1F303FB02F14268C2F3C7
:100798000143581C4200B1FBF2F1CAE704000020F3
:1007A800703D0008000000205C0400206004002068
:1007B8009C0400204FF46053C4F20203002219681D
:1007C80041F0010018609A60186843F2100120F0A7
:1007D800847020F48030C2F20041186059601968B2
:1007E80021F480201860DA60704700BF43F60203E6
:1007F800C4F2020300221A701870704782B04FF4D6
:10080800605200230193C4F20202106883030CD5DE
:10081800019A511C0191019B4FF46053C4F20203E9
:100828001868C0F3404002B0704701994B1C01930F
:100838000198B0F5A06FE8D1EEE700BF4FF4605320
:10084800C4F202031A6822F0F80141EAC0001860F5
:10085800704700BF0023C4F247231860704700BFE9
:1008680043F67003C4F20203002201281A701A70BA
:1008780004D0042801D105201870704718707047FB
:100888004FF46863C4F247231860704730B40143DB
:10089800029D41EA82125B084FF4605442EA056502
:1008A800591EC4F2020445EA0140606030BC70473A
:1008B8006023C4F247231860704700BF4FF46053A9
:1008C8008001C4F2020340EA0171C3F88410704742
:1008D8006823C4F247231860704700BF4C23C4F252
:1008E80047231860704700BF4FF46053C4F20203F7
:1008F8009A6822F0EC62104301439960704700BF88
:100908004FF46053C4F202039A6822F0784210430D
:1009180001439960704700BF4FF46053C4F202036B
:100928009A6822F003010843986070474FF46053B7
:10093800C4F20203986800F00C0070474FF460534B
:10094800C4F202039A6822F0F001084398607047E5
:100958004FF46053C4F202039A6822F4E05108434A
:10096800986070474FF46053C4F202039A6822F407
:10097800604141EAC0009860704700BF4FF460537F
:10098800C4F2020310B49A6802F00C01042922D0C0
:10099800082926D04FF41052C0F2F40202604FF436
:1009A8006053C4F2020321499C68C4F303140C5D2C
:1009B80022FA04F242609C68C4F382240C5D22FA95
:1009C80004F484609B68C3F34233C95C22FA01F2E1
:1009D800C26010BC704747F64002C0F27D12026048
:1009E800DDE75C68596814F4800F5C6801F03F0229
:1009F80014BF47F640034FF41053C4F388114FF463
:100A0800605414BFC0F27D13C0F2F403C4F20204B0
:100A1800B3FBF2F303FB01F26168C1F301435C1C11
:100A28006100B2FBF1F20260B9E700BF18000020D4
:100A380000F44073B3F5407F0CD14FF46053C4F217
:100A4800020320F070419A6821F4407122F4F812F0
:100A5800114399604FF46053C4F2020300051A6F02
:100A6800010D11431967704740F63C63C4F24723F0
:100A7800186070474FF46463C4F2472318607047E6
:100A88004FF4AE73C4F24723186070474FF46053B5
:100A9800C4F202031A6B19B922EA000018637047FE
:100AA80010431863704700BF4FF46053C4F2020349
:100AB8005A6B19B922EA000058637047104358630B
:100AC800704700BF4FF46053C4F202039A6B19B920
:100AD80022EA00009863704710439863704700BF8C
:100AE8004FF46053C4F202031A6C19B922EA0000E9
:100AF8001864704710431864704700BF4FF4605380
:100B0800C4F202035A6C19B922EA0000586470470B
:100B180010435864704700BF4FF46053C4F2020397
:100B28001A6919B922EA0000186170471043186160
:100B3800704700BF4FF46053C4F202035A6919B9F1
:100B480022EA00005861704710435861704700BF9F
:100B58004FF46053C4F202039A6919B922EA0000FB
:100B68009861704710439861704700BF4FF4605315
:100B7800C4F202031A6A19B922EA0000186270471F
:100B880010431862704700BF4FF46053C4F2020369
:100B98005A6A19B922EA000058627047104358622D
:100BA800704700BF4FF46053C4F202031A6D19B9BD
:100BB80022EA00001865704710431865704700BFA7
:100BC8004FF46053C4F202035A6D19B922EA0000C7
:100BD8005865704710435865704700BF4FF460531D
:100BE800C4F202039A6D19B922EA000098657047A9
:100BF80010439865704700BF4FF46053C4F2020376
:100C08001A6E19B922EA0000186670471043186670
:100C1800704700BF4FF46053C4F202035A6E19B90B
:100C280022EA00005866704710435866704700BFB4
:100C380043F60D03C4F202031A7819B922EA000038
:100C48001870704710431870704700BF4309012B94
:100C58000ED04FF46051C4F20201022B0CBF096F91
:100C6800496F00F01F0021FA00F303F001007047FC
:100C78004FF46052C4F202021168F2E74FF4605375
:100C8800C4F202035A6F42F080705867704700BF81
:100C98004FF46053C4F20203D96808420CBF002025
:100CA8000120704743F60E03C4F202031870704720
:100CB80008B50023C4F2020398423CD04FF4806187
:100CC800C4F20201884240D04FF40062C4F202022A
:100CD800904244D04FF44063C4F20203984248D093
:100CE8004FF48051C4F2020188424CD04FF4A05214
:100CF800C4F20202904250D04FF4C053C4F202032F
:100D0800984254D04FF4E051C4F20201884258D0BE
:100D18004FF40052C4F20202904200D008BD0121F3
:100D28004FF48070FFF7F8FE4FF480700021BDE8A3
:100D38000840FFF7F1BE01200146FFF7EDFE012054
:100D48000021BDE80840FFF7E7BE02200121FFF7B8
:100D5800E3FE02200021BDE80840FFF7DDBE0420C5
:100D68000121FFF7D9FE04200021BDE80840FFF764
:100D7800D3BE08200121FFF7CFFE08200021BDE8DF
:100D88000840FFF7C9BE10200121FFF7C5FE10205B
:100D98000021BDE80840FFF7BFBE20200121FFF772
:100DA800BBFE20200021BDE80840FFF7B5BE40206B
:100DB8000121FFF7B1FE40200021BDE80840FFF700
:100DC800ABBE80200121FFF7A7FE80200021BDE8EF
:100DD8000840FFF7A1BE00BF2DE9F00F0E6884B0F0
:100DE8000022884613464FF0010B00968A4607E01A
:100DF800DDF80490A14539D04B1CAA1C102B54D007
:100E0800009E0BFA03F5591C05EA060C0BFA01F4CF
:100E18002640AC45019602F10205E9D1032606FAFF
:100E280002F907689AF804806FEA09094E463E40BD
:100E380006600768CDF80C9008FA02F908F1FF3847
:100E480049EA0709B8F1010FC0F8009031D9C36821
:100E5800039F9AF807C0DDF804903B40C360C3685D
:100E68000CFA02F21A43A145C260C5D103230468F3
:100E78009AF80420AB40DB431C400460046802FA83
:100E880005FC013A4CEA0404012A046033D9C2681B
:100E98009AF807401340C360C26804FA05F3134385
:100EA800C3604B1CAA1C102BAAD104B0BDE8F00FDC
:100EB8007047D0F80880039E9AF806709AF8059053
:100EC80006EA0808C0F80880D0F8088009FA02F98C
:100ED80049EA0808C0F80880D0F8048028EA0C0C11
:100EE800C0F804C0D0F8049007FA03F39FB247EAA9
:100EF80009034360ABE786689AF805709AF80620FC
:100F08001E408660846807FA05FC4CEA0406866081
:100F18004768019E27EA06074760446802FA01F21B
:100F280092B222434260B2E700234FF6FF7202609A
:100F3800037143718371C371704700BF82B04FF46E
:100F480080330193019A41EA02030193019AC26135
:100F5800C1610199C161C3690193C069019002B07F
:100F6800704700BF036919420CBF00200120704779
:100F7800006980B2704700BF436919420CBF002066
:100F880001207047406980B2704700BF01837047F5
:100F9800418370470AB9418370470183704700BF96
:100FA800416170474369594041617047CB08083334
:100FB80001F0070130B4890050F823500F2404FAD7
:100FC80001F425EA040440F8234050F8234002FACB
:100FD80001F2144340F8234030BC704708B50023A1
:100FE800C4F2010398425BD0B0F1804F62D04FF455
:100FF8008061C4F20001884266D04FF40062C4F2F6
:10100800000290426AD04FF44063C4F20003984251
:101018006ED04FF48051C4F20001884272D04FF470
:10102800A052C4F20002904276D04FF48063C4F21A
:10103800010398427AD04FF48041C4F201018842FA
:101048007ED04FF48842C4F20102904200F08480BE
:101058004FF49043C4F20103984200F089804FF4A2
:10106800C051C4F20001884200F08E804FF4E05273
:10107800C4F20002904200F091804FF40053C4F291
:101088000003984200D008BD01214FF48070FFF79B
:101098006DFD4FF480700021BDE80840FFF766BD84
:1010A80001200146FFF770FD01200021BDE808403E
:1010B800FFF76ABD01200146FFF758FD0120002116
:1010C800BDE80840FFF752BD02200121FFF74EFDA1
:1010D80002200021BDE80840FFF748BD0420012197
:1010E800FFF744FD04200021BDE80840FFF73EBD9E
:1010F80008200121FFF73AFD08200021BDE808403B
:10110800FFF734BD10200121FFF730FD102000212A
:10111800BDE80840FFF72ABD20200121FFF726FD82
:1011280020200021BDE80840FFF720BD0220012152
:10113800FFF72AFD02200021BDE80840FFF724BD83
:1011480001214FF48030FFF71FFD4FF4803000215C
:10115800BDE80840FFF718BD01214FF40030FFF744
:1011680013FD4FF400300021BDE80840FFF70CBD27
:1011780001214FF48020FFF707FD4FF48020002164
:10118800BDE80840FFF700BD40200121FFF7EEFC55
:1011980040200021BDE80840FFF7E8BC802001217D
:1011A800FFF7E4FC80200021BDE80840FFF7DEBC23
:1011B80000220388C4F20102904270B49BB21AD094
:1011C8004FF48062C4F20102904214D0B0F1804F13
:1011D80011D04FF48062C4F2000290420BD04FF459
:1011E8000062C4F20002904205D04FF44062C4F29B
:1011F8000002904205D14FF68F724C881A4042EA9D
:1012080004034FF48052C4F20002904221D04FF4FC
:10121800A052C4F2000290421BD04FF6FF420E8942
:101228004C680D881A400023C4F2010332439842E7
:101238000280C462058509D04FF48062C4F20102BD
:10124800904203D00123838270BC7047897A01865B
:10125800F8E703804A680988C2620185F2E700BF9F
:1012680000234FF0FF314160038003814380837284
:10127800704700BF01858282704700BF038823F052
:10128800700213041A0C11430180704741627047C1
:10129800C1627047406A7047008D80B2704700BFD6
:1012A800038829B923F002010A04130C038070474C
:1012B80099B241F002020280704700BF038829B941
:1012C80023F004010A04130C0380704799B241F01B
:1012D80004020280704700BF038829B923F0800107
:1012E8000A04130C0380704799B241F0800202800F
:1012F800704700BF038823F0080213041A0C028009
:1013080003889AB211430180704700BF038823F411
:10131800407213041A0C028003889AB211430180A8
:10132800704700BF038829B923F001010A04130C90
:101338000380704799B241F001020280704700BFF4
:101348002DE9F001048CB1F802C08E890F8824F0D1
:10135800010213041D0C0584048C8588028B24F07B
:10136800020322F07304220400241B044CEA06063C
:10137800C4F20104120C1B0CB6B2A042ADB242EA90
:10138800070246EA03030DD04FF48064C4F2010457
:10139800A04207D089688580028341630384BDE841
:1013A800F00170474FF6F774B1F80EC0B1F812802B
:1013B8000F8A8E881C4044EA0C0C4FF6FB734FF6DC
:1013C800FF4448EA07072C400CEA0303BDB2334345
:1013D8002543DFE72DE9F003048C8D890F884E88BB
:1013E80024F0100213041C0C0484028C8488038BE0
:1013F80022F020021204120C23F4E6431B0442EAF2
:10140800051200251B0CC4F2010543EA072342EA32
:101418000612A842A4B29BB292B20DD04FF48065D6
:10142800C4F20105A84207D08968848003838163D8
:101438000284BDE8F00370474FF67F76B1F80E904E
:10144800B1F81080B1F804C04F8A16404FF2FF354A
:10145800254046EA09164FF6BF72324045EA88042D
:1014680042EA0C1244EA870492B2A4B2DCE700BF55
:101478002DE9F003048C8D894F880E8824F480723E
:1014880013041C0C0484028C8488838B22F400725D
:101498001204120C42EA052223F0730300251B04F0
:1014A800C4F201051B0C42EA0722A842A4B243EA8F
:1014B800060392B20DD04FF48065C4F20105A8422C
:1014C80007D0896884808383C1630284BDE8F00300
:1014D80070474FF2FF76B1F80E90B1F81080B1F86E
:1014E80004C04F8A16404CF6FF75254046EA092687
:1014F8004FF6FF32324045EA081442EA0C2244EA29
:10150800071492B2A4B2DCE7F0B4048CB1F80CC0B2
:101518000F884E8824F4805213041D0C0584048C13
:101528008588838B24F40052120423F4E6442304B0
:10153800140C44EA0C3200241B0CC4F2010443EAE4
:10154800072342EA0632A042ADB29BB292B20CD057
:101558004FF48064C4F20104A04206D089688580F3
:10156800838301640284F0BC70474BF6FF740E8AD3
:101578002C4044EA8615ADB2F0E700BF0023038093
:101588004380838083608381C38103824382704761
:10159800038C10B401249BB204FA01F423EA040476
:1015A800048400F1180379B108290DD00439C1F376
:1015B8004E0148F6FF70CC582040C8501202C85857
:1015C80092B21043C85008E049084FF68F70CC58C3
:1015D8002040C850C8580243CA5010BC704700BFCA
:1015E8004163704781637047C16370470164704706
:1015F800038B23F0700213041A0C11430183704704
:10160800038B23F4E04213041A0C42EA01218BB243
:1016180003837047838B23F0700213041A0C114361
:1016280081837047838B23F4E04213041A0C42EA47
:1016380001218BB283837047038B23F008021304C4
:101648001A0C114301837047038B23F400621304BF
:101658001A0C42EA01218BB203837047838B23F073
:10166800080213041A0C114381837047838B23F4F7
:10167800006213041A0C42EA01218BB2838370477B
:10168800038B23F0040213041A0C114301837047DF
:10169800038B23F4806213041A0C42EA01218BB2F3
:1016A80003837047838B23F0040213041A0C11433D
:1016B80081837047838B23F4806213041A0C42EAF7
:1016C80001218BB283837047038B23F080021304BC
:1016D8001A0C114301837047038B5A04530C43EAD5
:1016E80001218AB202837047838B23F0800213049E
:1016F8001A0C114381837047838B5A04530C43EAB5
:1017080001218AB282837047038C23F002021304FA
:101718001A0C114301847047038C23F00802130448
:101728001A0C114301847047038C23F02002130420
:101738001A0C42EA01118BB203847047038C23F020
:10174800800213041A0C42EA01118BB20384704719
:10175800038C23F4007213041A0C42EA01218BB2A1
:1017680003847047038C23F4006213041A0C42EAC2
:1017780001218BB203847047038C23F400521304B5
:101788001A0C42EA01318BB20384704710B4048CFE
:10179800012303FA01F3A4B224EA03030384038CAC
:1017A80002FA01F242EA03018AB2028410BC7047CD
:1017B80010B4048C042303FA01F3A4B224EA03034B
:1017C8000384038C02FA01F242EA03018AB202841A
:1017D80010BC70470B88F0B4002B32D0042B58D0C3
:1017E800082B028C4E8800F082808F880D89CC8867
:1017F80022F480510B041A0C0284818B038C21F48F
:10180800407223F4005112054B045B0C110D41EAA0
:10181800072243EA06318BB242EA053291B243F419
:10182800805281830284838B23F440610A04130C61
:101838008383818B8AB242EA042399B28183F0BC04
:101848007047038C4E888D880F89CC8823F001015E
:101858000A04130C0384018B038C21F0F302110496
:101868000A0C23F00A0342EA07111B048AB21B0C74
:1018780046F001010B432A4302830384028B22F0C2
:101888000C0319040A0C0283038B99B221430183C8
:10189800D5E7028C4E888D880F89CC8822F01001FC
:1018A8000B041A0C0284018B038C21F4407211057D
:1018B80023F0A0030A0D190442EA07320B0C43EA8D
:1018C800061391B241EA052299B241F0100392B28F
:1018D80002830384018B21F440621304190C0183F1
:1018E800028B93B243EA04218AB20283A7E722F467
:1018F800807213048D880F89CC88190C0184828B1F
:10190800038C22F0F30123F420630A041904120C57
:101918000B0C43EA062342EA07118AB299B241F452
:1019280080732A4382830384828B22F00C010B0488
:101938001A0C8283818B8BB2234383837FE700BF9A
:1019480000230122038043808280C3800381704783
:101958002DE9F0014A888B880C88002A0CBF0226E2
:101968000026012B14BF01270227002C54D0058C18
:10197800B1F80880B1F806C025F010010C04250C58
:101988000584048B018C24F44074240521F0A00103
:10199800240D0904090C44EA083441EA0212A4B2ED
:1019A80091B244EA032341F010029BB203830284FC
:1019B800018B21F440631A04110C0183038B9AB242
:1019C80042EA0C218BB20383028C22F001010B0442
:1019D8001A0C0284018B038C21F0F302110423F00A
:1019E8000A030A0C19040B0C42EA081291B243F0DC
:1019F80001020F43164307830684038B23F00C016F
:101A08000A04130C0383018B8AB242EA0C0CA0F877
:101A180018C0BDE8F0017047048CB1F808C0CD8843
:101A280024F001010C04210C0184018B048C21F0A9
:101A3800F3010904090C24F00A0441EA0C112404F6
:101A480089B242F00102240C0B431443038304843B
:101A5800018B21F00C021304190C0183028B93B241
:101A68002B430383018C21F010021304190C018409
:101A7800028B038C22F440710A0523F0A003110D98
:101A88001B0441EA0C32190C41F0100392B242EAED
:101A9800072743EA061607830684018B21F4406270
:101AA8001304190C0183028B93B243EA0525ADB2E6
:101AB8000583AEE7406B7047806B7047C06B70471B
:101AC800006C7047038B23F00C0213041A0C02837A
:101AD800038B9AB211430183704700BF038B23F431
:101AE800406213041A0C0283038B9AB242EA012162
:101AF8008BB20383704700BF838B23F00C0213045F
:101B08001A0C8283838B9AB211438183704700BF7A
:101B1800838B23F4406213041A0C8283838B9AB25A
:101B280042EA01218BB28383704700BF0B88B1F86A
:101B380002C08A89F0B48F88CE880D894C894CEA16
:101B48000301394331432943214311438BB2A0F8A0
:101B58004430F0BC704700BF00230380438083807B
:101B6800C380038143818381704700BFB0F844304C
:101B780021B959044A0CA0F8442070476FEA43433E
:101B88006FEA53418AB2A0F844207047838829B984
:101B980023F004010A04130C8380704799B241F0C2
:101BA80004028280704700BF838829B923F00101AD
:101BB8000A04130C8380704799B241F001028280B5
:101BC800704700BF83899BB21AB923EA010181815A
:101BD800704719438181704781827047038A19428F
:101BE8000CBF002001207047C9438AB202827047A7
:101BF800038A828911EA030092B203D011420CBF12
:101C080000200120704700BFC9438AB20282704792
:101C18000A43A0F84820704783899BB21AB923EA7F
:101C2800010181817047194381817047838829B9EF
:101C380023F008010A04130C8380704799B241F01D
:101C480008028280704700BF038923F007010A0455
:101C5800130C0381704700BF038923F0700213043B
:101C68001A0C1143018101898BB243F007020281EA
:101C7800704700BF602970B427D0068C26F0010495
:101C880025042E0C0684058B048C25F0F3052D0401
:101C980024F00A042D0C240445F00105240C45EA1F
:101CA800031344F001049BB2224303830284038993
:101CB80023F0700213041A0C1143018103899AB2AC
:101CC80042F00701018170BC7047058C25F01004B3
:101CD80025042C0C0484058B048C25F4407524F011
:101CE800A0042D0524042D0D240C45F4807544F022
:101CF800100445EA033344EA02129BB292B203830A
:101D08000284D4E710B40489E4B221430A4342EAC6
:101D180003239CB20481018921F077021304190C72
:101D280041F07702028110BC704700BF10B40489EB
:101D3800E4B221430A4342EA03239CB204810189A5
:101D48008AB242F48043038110BC7047038923F0B0
:101D5800700213041A0C114301817047838823F021
:101D6800700213041A0C828083889AB2114381800E
:101D7800704700BF038923F0070213041A0C02817D
:101D880003899AB211430181704700BF038923F088
:101D9800800213041A0C028103899AB2114301814B
:101DA800704700BF10B40489E4B221430A4342EAF1
:101DB80003239CB2048110BC704700BF70B405892E
:101DC800048B068C24F4407426F0220624F00304C5
:101DD8003604360C25F007052404240C32432D0460
:101DE80044F480762D0C42EA031346F0010429439B
:101DF8009EB201810483068470BC7047838829B928
:101E080023F080010A04130C8380704799B241F0D3
:101E180080028280704700BFA0F85010704700BF52
:101E280038B51B4C4FF480530546236003E0236804
:101E3800581E206043B34FF44050C4F20100022101
:101E480000F0F4FB0028F2D04FF44050C4F2010037
:101E5800294600F0B1FB4FF48050206003E0216870
:101E68004A1E226081B14FF44050C4F201000121A2
:101E780000F0DCFB0028F2D04FF44050C4F201001F
:101E880000F096FBC0B238BDFEF7A4FBC0B238BD67
:101E98002800002070B505460E464FF480500821F2
:101EA800012A1446C4F202002FD9FFF771F846F050
:101EB8004000FFF7B5FF661EB0B22C46411C6E18F5
:101EC80014F8010BED43721902F00105FFF7A8FFA2
:101ED800B44211D02DB114F8010BFFF7A1FFB442A1
:101EE8000AD0254615F8010BFFF79AFF60786C1C9D
:101EF800FFF796FFB442F4D14FF48050C4F20200C9
:101F08000821BDE87040FFF741B8FFF741F83046B7
:101F1800FFF786FF002CCED1EEE700BF2DE9F04F8A
:101F280089B00025804601214FF480508DF8035078
:101F3800FEF7E4FD01200146FEF7A8FD102001216F
:101F4800FEF7A4FD10200121FEF7A0FD2E4610206B
:101F58000121C4F20206FEF799FD05210A46304622
:101F680008ACFFF723F8304606210522FFF71EF8D4
:101F78004FF02009052230460721FFF717F844F8EB
:101F88001C9D0227304621468DF808708DF80A50AE
:101F98008DF80B708DF809704FF4405AFEF71CFF4E
:101FA8008023304621460193C4F2010AFEF714FF4C
:101FB8004022214630460192FEF70EFF504600F0BF
:101FC80081F94FF4007307224FF0080B03A950461C
:101FD800ADF816304FF480564FF48273ADF81C20DC
:101FE800ADF80E30C4F20206ADF80C50ADF8105042
:101FF800ADF81250ADF81450ADF818B0ADF81A504D
:1020080000F098F95046012100F04AFA4FF0010A11
:1020180030462146CDF804B08DF808A08DF80A5056
:102028008DF80970FEF7D8FE30465946FEF7AEFF28
:1020380030462146CDF804A08DF808508DF80A5096
:102048008DF809708DF80B50FEF7C6FE3046214614
:102058000197FEF7C1FE98F8004098F8013098F80B
:10206800030098F8041098F80220234303430B4315
:102078000DEB0900134300F81D3D49465246FFF792
:1020880009FF09B0BDE8F08F70B504460E464FF45D
:1020980080500821012A1546C4F2020032D9FEF701
:1020A80077FF46F0C000FFF7BBFE6E1EB0B2411CC2
:1020B8006618E343F218002002F00105FFF7B0FEAE
:1020C80004F8010BB44214D035B10020FFF7A8FE84
:1020D80004F8010BB4420CD00020FFF7A1FE2546FE
:1020E80005F8010B0020FFF79BFE60706C1CB442E2
:1020F800F2D14FF48050C4F202000821BDE87040CC
:10210800FEF744BFFEF744FF46F08000FFF788FE65
:10211800002DCAD1EDE700BF00B583B00DF107006F
:1021280021210122FFF7B0FF9DF807300DF10700CC
:1021380043F04003212101228DF80730FFF7AAFE62
:1021480003B000BD10B582B02021012204460DF174
:102158000700FFF799FF9DF8073023F0200004439C
:1021680020210DF1070001228DF80740FFF792FEAC
:1021780002B010BD10B582B02021012204460DF135
:102188000700FFF781FF9DF8073003F07F00044345
:1021980020210DF1070001228DF80740FFF77AFE94
:1021A80002B010BD10B582B02021012204460DF105
:1021B8000700FFF769FF9DF8073023F0400004434C
:1021C80020210DF1070001228DF80740FFF762FE7C
:1021D80002B010BD30B583B002AC002304F8013D55
:1021E8000546382120460122FFF74EFF69782878F6
:1021F800AA7841EA000313432046382101228DF8CA
:102208000730FFF747FE03B030BD00BF30B583B0DD
:1022180002AC002304F8013D054621212046012295
:10222800FFF732FF68782B789DF80720A9780343D9
:102238000B4322F02F0003432121204601228DF871
:102248000730FFF727FE03B030BD00BF10B584B0DC
:102258002021012204460DF10700FFF715FF02A80F
:1022680006222921FFF710FF9DF8073003F0200010
:1022780000F0FF0290B99DF908109DF90A209DF918
:102288000C3001EBC10002EBC20203EBC3034100B7
:1022980052005B0084E80E0004B010BD002AFBD099
:1022A8009DF90A009DF90C309DF9081000EBC00259
:1022B80001EBC10103EBC300C900D200C30084E8ED
:1022C8000E00E9E708B54FF44053C4F20103984201
:1022D80018D04FF46051C4F2000188421ED04FF468
:1022E8007052C4F20002904200D008BD01214FF4A0
:1022F8000040FEF73BFC4FF400400021BDE80840D9
:10230800FEF734BC01214FF48050FEF73DFC4FF43A
:1023180080500021BDE80840FEF736BC01214FF48B
:102328008040FEF723FC4FF480400021BDE80840C0
:10233800FEF71CBC2DE9F0070B88B1F802A0B1F834
:102348000490B1F80680B1F808C04F898E89CC890D
:102358000A8A05884AEA030141EA090343EA0801AF
:1023680041EA0C033B43334305F4415123430B43F8
:1023780099B20180838B23F400610B04190C8183CB
:102388000282BDE8F0077047838B8A682DE9F00365
:1023980023F47B6424F00F052E04370C0223878373
:1023A8000384848B9A42A6B25ED04FF46057C4F27D
:1023B80002078C88BD68002C0CBF4FF0010C4FF051
:1023C800020C2D024BD44FF46053C4F2020347F6BB
:1023D8004005D3F88480D3F88470D3F80490CB8870
:1023E80009F03F09C0F27D15B5FBF9F5C8F3881867
:1023F80008FB05F5C7F30277B3F5007FB5FBF7F5E2
:1024080035D04FEA4C1CB5FBFCF707EB87056F008E
:10241800B7FBF2F2551D4CF6CD42AFB2CCF6CC422A
:10242800A2FB0775EA085508AF1E02F00102FD2F4E
:1024380094BF45EA02220222B1F800C04F888D8974
:1024480046EA0C0141F400613943294313438AB237
:10245800144399B201848483BDE8F0037047BB68D4
:1024680023F40005BD60AEE78C88CB88E4E72F0A2B
:10247800CBE700BF00230721038043808380C3800C
:10248800038143818381C381018270470023022233
:10249800038043808380C38082608381704700BF4C
:1024A800038829B923F040010A04130C03807047FC
:1024B80099B241F040020280704700BF838B29B96E
:1024C80023F480610A04130C8383704799B241F4A2
:1024D80080628283704700BF038823F4006213047C
:1024E8001A0C028003889AB211430180704700BF1A
:1024F800B1F5804F038805D023F480410A04130CFA
:102508000380704799B241F480420280704700BF4F
:102518004FF6FF639942018804D08AB242F480736F
:102528000380704721F480721304190C01807047EE
:10253800838829B923F004010A04130C83807047A7
:1025480099B241F004028280704700BF838829B99C
:1025580023F010010A04130C8380704799B241F0EC
:1025680010028280704700BF838B0A8870B423F4FE
:102578007B6424F00F052E04330C02248383048427
:10258800858BB2F5007FABB202D00AB1002601E01C
:102598004FF480764D888C8889892B4343F40062F8
:1025A80022430A4393B23343838370BC704700BF0E
:1025B800808980B2704700BF81817047038829B93C
:1025C80023F400510A04130C0380704799B241F4B4
:1025D80000520280704700BF038899B241F48052CC
:1025E80002807047012914BF008B808A80B270472F
:1025F800008A80B2704700BF83889BB21AB923EA69
:1026080001018180704719438180704701230909BE
:1026180003FA01F1838889B29BB21AB923EA01024D
:102628008280704719438180704700BF038919422F
:102638000CBF002001207047C9438AB2028170474D
:1026480010B484880089012201F00F0380B202FAD5
:1026580003F31840A4B206D0090902FA01F21442A1
:102668000CBF0020012010BC704700BF01F00F0113
:10267800012303FA01F2D1438BB20381704700BFF3
:1026880081F0004102E000BF83F0004330B54FEA1B
:1026980041044FEA430594EA050F08BF90EA020F88
:1026A8001FBF54EA000C55EA020C7FEA645C7FEA1B
:1026B800655C00F0E2804FEA5454D4EB5555B8BF3E
:1026C8006D420CDD2C4480EA020281EA030382EAAF
:1026D800000083EA010180EA020281EA0303362D41
:1026E80088BF30BD11F0004F4FEA01314FF4801C14
:1026F8004CEA113102D0404261EB410113F0004F26
:102708004FEA03334CEA133302D0524263EB4303DC
:1027180094EA050F00F0A780A4F10104D5F1200E7A
:102728000DDB02FA0EFC22FA05F2801841F10001D5
:1027380003FA0EF2801843FA05F359410EE0A5F1A9
:1027480020050EF1200E012A03FA0EFC28BF4CF0DA
:10275800020C43FA05F3C01851EBE37101F0004590
:1027680007D54FF0000EDCF1000C7EEB00006EEB9D
:102778000101B1F5801F1BD3B1F5001F0CD3490827
:102788005FEA30004FEA3C0C04F101044FEA44527E
:1027980012F5800F80F09A80BCF1004F08BF5FEA05
:1027A800500C50F1000041EB045141EA050130BDE5
:1027B8005FEA4C0C404141EB010111F4801FA4F188
:1027C8000104E9D191F0000F04BF01460020B1FADD
:1027D80081F308BF2033A3F10B03B3F120020CDA15
:1027E8000C3208DD02F1140CC2F10C0201FA0CF0F3
:1027F80021FA02F10CE002F11402D8BFC2F1200C58
:1028080001FA02F120FA0CFCDCBF41EA0C0190400D
:10281800E41AA2BF01EB0451294330BD6FEA040456
:102828001F3C1CDA0C340EDC04F11404C4F1200241
:1028380020FA04F001FA02F340EA030021FA04F353
:1028480045EA030130BDC4F10C04C4F1200220FAAA
:1028580002F001FA04F340EA0300294630BD21FAE8
:1028680004F0294630BD94F0000F83F4801306BFAE
:1028780081F480110134013D4EE77FEA645C18BFA2
:102888007FEA655C29D094EA050F08BF90EA020F39
:1028980005D054EA000C04BF1946104630BD91EA31
:1028A800030F1EBF0021002030BD5FEA545C05D134
:1028B8004000494128BF41F0004130BD14F5800473
:1028C8003CBF01F5801130BD01F0004545F0FE41E7
:1028D80041F470014FF0000030BD7FEA645C1ABF1C
:1028E800194610467FEA655C1CBF0B46024650EA53
:1028F800013406BF52EA033591EA030F41F400217F
:1029080030BD00BF90F0000F04BF0021704730B504
:102918004FF4806404F132044FF000054FF00001D9
:1029280050E700BF90F0000F04BF0021704730B59A
:102938004FF4806404F1320410F0004548BF40426F
:102948004FF000013EE700BF42004FEAE2014FEAC4
:1029580031014FEA02701FBF12F07F4393F07F4F9F
:1029680081F06051704792F0000F14BF93F07F4FD1
:10297800704730B54FF4607401F0004521F0004114
:1029880020E700BF50EA010208BF704730B54FF09A
:1029980000050AE050EA010208BF704730B511F09F
:1029A800004502D5404261EB41014FF4806404F1D7
:1029B80032045FEA915C3FF4DCAE4FF003025FEA59
:1029C800DC0C18BF03325FEADC0C18BF033202EBE1
:1029D800DC02C2F1200300FA03FC20FA02F001FA3B
:1029E80003FE40EA0E0021FA02F11444C1E600BFDA
:1029F80070B54FF0FF0C4CF4E06C1CEA11541DBF8D
:102A08001CEA135594EA0C0F95EA0C0F00F0DEF857
:102A18002C4481EA030621EA4C5123EA4C5350EA3C
:102A2800013518BF52EA033541F4801143F480138D
:102A380038D0A0FB02CE4FF00005E1FB02E506F01E
:102A48000042E0FB03E54FF00006E1FB03569CF073
:102A5800000F18BF4EF0010EA4F1FF04B6F5007F79
:102A680064F5407404D25FEA4E0E6D4146EB0606EB
:102A780042EAC62141EA55514FEAC52040EA5E5074
:102A88004FEACE2EB4F1FD0C88BFBCF5E06F1ED81E
:102A9800BEF1004F08BF5FEA500E50F1000041EB55
:102AA800045170BD06F0004646EA010140EA020002
:102AB80081EA0301B4EB5C04C2BFD4EB0C0541EA24
:102AC800045170BD41F480114FF0000E013C00F339
:102AD800AB8014F1360FDEBF002001F0004170BD5D
:102AE800C4F10004203C35DA0C341BDC04F1140476
:102AF800C4F1200500FA05F320FA04F001FA05F202
:102B080040EA020001F0004221F0004110EBD370CE
:102B180021FA04F642EB06015EEA430E08BF20EAFA
:102B2800D37070BDC4F10C04C4F1200500FA04F39D
:102B380020FA05F001FA04F240EA020001F000412F
:102B480010EBD37041F100015EEA430E08BF20EAA2
:102B5800D37070BDC4F1200500FA05F24EEA020EEA
:102B680020FA04F301FA05F243EA020321FA04F019
:102B780001F0004121FA04F220EA020000EBD370D0
:102B88005EEA430E08BF20EAD37070BD94F0000FD0
:102B98000FD101F00046400041EB010111F4801F04
:102BA80008BF013CF7D041EA060195F0000F18BFB5
:102BB800704703F00046520043EB030313F4801FF1
:102BC80008BF013DF7D043EA0603704794EA0C0FAB
:102BD8000CEA135518BF95EA0C0F0CD050EA4106C1
:102BE80018BF52EA4306D1D181EA030101F000413E
:102BF8004FF0000070BD50EA410606BF1046194666
:102C080052EA430619D094EA0C0F02D150EA013671
:102C180013D195EA0C0F05D152EA03361CBF1046B2
:102C280019460AD181EA030101F0004141F0FE4151
:102C380041F470014FF0000070BD41F0FE4141F4D5
:102C4800780170BD70B54FF0FF0C4CF4E06C1CEAD5
:102C580011541DBF1CEA135594EA0C0F95EA0C0F8A
:102C680000F0A7F8A4EB050481EA030E52EA033545
:102C78004FEA013100F088804FEA03334FF0805566
:102C880045EA131343EA12634FEA022245EA111593
:102C980045EA10654FEA00260EF000419D4208BF44
:102CA800964244F1FD0404F5407402D25B084FEAF1
:102CB8003202B61A65EB03055B084FEA32024FF49D
:102CC80080104FF4002CB6EB020E75EB030E22BFFA
:102CD800B61A754640EA0C005B084FEA3202B6EBBA
:102CE800020E75EB030E22BFB61A754640EA5C0069
:102CF8005B084FEA3202B6EB020E75EB030E22BFF9
:102D0800B61A754640EA9C005B084FEA3202B6EBF9
:102D1800020E75EB030E22BFB61A754640EADC00B8
:102D280055EA060E18D04FEA051545EA16754FEA1A
:102D380006164FEAC30343EA52734FEAC2025FEA38
:102D48001C1CC0D111F4801F0BD141EA00014FF0C7
:102D580000004FF0004CB6E711F4801F04BF014398
:102D68000020B4F1FD0C88BFBCF5E06F3FF6AFAEB4
:102D7800B5EB030C04BFB6EB020C5FEA500C50F144
:102D8800000041EB045170BD0EF0004E4EEA1131C7
:102D980014EB5C04C2BFD4EB0C0541EA045170BDCE
:102DA80041F480114FF0000E013C90E645EA060E12
:102DB8008DE60CEA135594EA0C0F08BF95EA0C0F40
:102DC8003FF43BAF94EA0C0F0AD150EA01347FF488
:102DD80034AF95EA0C0F7FF425AF104619462CE75F
:102DE80095EA0C0F06D152EA03353FF4FDAE1046C2
:102DF800194622E750EA410618BF52EA43067FF413
:102E0800C5AE50EA41047FF40DAF52EA43057FF4A2
:102E1800EBAE12E74A0011D212F5001211D20DD50D
:102E28006FF47873B3EB62520ED44FEAC12343F0C8
:102E3800004343EA505323FA02F070474FF0000072
:102E4800704750EA013002D14FF0FF3070474FF021
:102E5800000070474FEA4102B2F1E04324BFB3F5E6
:102E6800001CDCF1FE5C0DD901F0004C4FEAC002F9
:102E78004CEA5070B2F1004F40EB830008BF20F0DD
:102E88000100704711F0804F21D113F13872BCBF97
:102E980001F00040704741F480114FEA5252C2F1EC
:102EA8001802C2F1200C10FA0CF320FA02F018BF35
:102EB80040F001004FEAC1234FEAD32303FA0CFC88
:102EC80040EA0C0023FA02F34FEA4303CCE77FEA17
:102ED800625307D150EA01331EBF4FF0FE4040F461
:102EE8004000704701F0004040F0FE4040F4000010
:102EF800704700BF000000002DE9F843CE4BCF4CCF
:102F08001968DFF85C93CE4DCE4F44F6D350C1F22A
:102F18006200A0FB01264EF210034FF46D42CEF280
:102F28000003B109CEF20002481EF0262DED0A8BEF
:102F38000721586082F8236000229A601960FDF723
:102F4800D1FAFDF703FBFDF7B1FAFDF77BF940F283
:102F580099209FEDBD8AFDF789FA9FEDBCBADFED98
:102F6800BCAA9FEDBCAA9FEDBCCADFEDBCBAF0EECF
:102F7800489A4FF00A0808F1FF381E235FFA88F8CC
:102F8800236020680028FCD10622B5482921FFF7D4
:102F98007BF899F800E095F9002095F9011095F96A
:102FA800023099F8026099F8040005EE901A06EECE
:102FB800103A05EE102A71B24FFA8EF243B207EEBC
:102FC800903A06EE902A07EE101AB8EEE71AF8EED5
:102FD800C70AB8EEE60AF8EEC62AB8EEE52AF8EE11
:102FE800C51A21EE2A4A60EEAA3A20EE2A3A02EEE3
:102FF8008B4A42EE0B3A01EE8B3ABDEEC49AFDEED7
:10300800C34AFDEEE38A14EE901A19EE103A18EE50
:10301800902AC1EB0E0CC01AB61AB0EE690A87F8EE
:1030280000C0AB70B87029706A707E7000F052F9F9
:1030380060EE0ACA4FF48066BCEEEC5AC4F2000691
:1030480015EE101A8AB2726339EE8C0A00F042F952
:1030580060EE0A5A39EEAB0ABCEEE56AB7EE009AA2
:1030680016EE103A98B2F06300F034F960EE0A6A8E
:10307800B0EE480ABCEEE67AF6EE008A17EE101AB1
:103088008AB2326400F026F970EE097A4FF40066CD
:1030980027EEA80AC4F2000610EE100AFFF754FC47
:1030A8005FA3D3E90023FFF7A3FC4FF448430022B2
:1030B800C4F28403FFF79CFCFFF7ACFEDFED690A5E
:1030C80083B238EE200A736300F004F930EE091A6F
:1030D80061EE281A11EE900AFFF736FC50A3D3E9E7
:1030E8000023FFF785FC4FF448430022C4F2840311
:1030F800FFF77EFCFFF78EFE9FED5B2A80B238EE6D
:10310800020AB06300F0E6F870EE092A22EEA83A47
:1031180013EE100AFFF718FC41A3D3E90023FFF7C9
:1031280067FC4FF448430022C4F28403FFF760FCB5
:10313800FFF770FEDFED4D3A81B238EE230AF163F6
:1031480000F0C8F830EE094A64EE284A14EE900AF6
:10315800FFF7FAFB32A3D3E90023FFF749FC4FF44A
:1031680048430022C4F28403FFF742FCFFF752FEF3
:1031780082B23264B8F1000F37D097F90060314855
:10318800002E40DB90F9011006EBD17313B34A42CD
:10319800022AD4BF00220122002A3FF4ECAE19EE25
:1031A800900AFFF7D1FB20A3D3E90023FFF76EFABB
:1031B800FFF750FE09EE900A18EE100AFFF7C4FB5D
:1031C8001BA3D3E90023FFF761FAFFF743FE08EEDC
:1031D800100AD0E690F9026001EBD672CAB17242C9
:1031E800022AD4BF00220122D6E74FF44060C4F27D
:1031F80002002021FDF7D6FE97F900601148002E45
:103208004FF00A08BEDA70420228D4BF0022012219
:10321800C2E7022ED4BF00220122BDE7AFF300802F
:10322800CDCCCCCCCCCCEC3F9A9999999999B93F13
:103238009A9999999999D93F140000207C04002003
:10324800900400208C040020000000009A99193F87
:10325800CCCCCC3E00402644920A0640920A8640D6
:1032680094040020DB0FC93FDB0F4940E4CB9640B4
:10327800002100F004B8104B5B58435004310F484C
:103288000F4B42189A42FFF4F6AF0E4A00F003B80B
:10329800002342F8043B0C4B9A42FFF4F9AFFDF7C8
:1032A800ADF900F00BF90948016841F470010160BB
:1032B800FFF722FE70470000703D00080000002064
:1032C8005C040020600400209C04002088ED00E0DD
:1032D800FFF7FEBF9FED2D7AB5EEC00A60EE070A34
:1032E800F1EE10FAFDEEE07A04D517EE902A501EA2
:1032F80007EE900AB8EEE70ADFED256A30EEC01A4D
:10330800F6EE004A61EE261ADFED223ABCEEE12A1B
:103318009FED214AF8EE422A12EE101A71EEE20AE7
:103328001E4B20EEA03A60EEA47A23EE245A67EEF4
:10333800835AB0EE457A20EEA31A00EEC47AB7EEAF
:10334800000A21EE036A35EEC32A70EE672A03EB02
:10335800810275EE200A77EE466A36EE411A72EE61
:10336800224A92ED013A92ED036A30EEE55AD2ED27
:10337800001AD2ED025A64EE833A61EE067A46EEFE
:10338800A13A45EE257A33EEA70A704783F9223E23
:1033980000008043ABAA2A3EABAAAA3E2C390008FB
:1033A8002DE9F041274C2568D5F8484184B00746F7
:1033B800002C41D066681F2E1CDD234810B94FF041
:1033C800FF301FE04FF4C870039102920193AFF3EE
:1033D80000800399029A019B04460028EFD0D5F893
:1033E8004861002060602660C5F84841C4F888013B
:1033F800C4F88C01656847B9A81C013544F8201049
:103408006560002004B0BDE8F081D4F8886101202F
:1034180004EB850800FA05F00643022FC8F8882057
:10342800C4F88861C8F80831E6D1D4F88C3143EA89
:103438000002C4F88C21DFE705F5A674C5F84841F9
:10344800B8E700BF3C3D00080000000008B50021B7
:10345800044600F01DF9044B1868C16B01B1884798
:10346800204600F078EC00BF3C3D000870B5114BD9
:10347800114C181B811018D004EB81044E1E3546E0
:1034880054F8042D06F00106904775B126B154F89A
:10349800043D9847013D08D054F8040D8047013D8C
:1034A80054F8041D8847013DF6D1BDE8704000F08E
:1034B8004BBC00BF703D00086C3D0008F8B5204FBC
:1034C800204C381B871017D07A1E2368012502F07C
:1034D80001069847AF420FD02EB154F8041F0225B9
:1034E8008847AF4208D0606880470235A268261D29
:1034F80090470834AF42F6D1134F144C00F01EFC2D
:103508003B1B9F1018D07D1E216805F00106012580
:103518008847AF4211D02EB154F8040F02258047D6
:10352800AF420BD0626890470235A368261D9847C2
:103538000834AF42F6D1F8BDF8BDF8BDF8BD00BFFC
:10354800643D0008643D00086C3D0008643D0008C7
:10355800F0B48407034600F08E80541E002A00F061
:103568008880E507CEB211D41A46671E02F8016BAF
:103578001346154692070FD0002C7AD003F8016B3A
:103588009A073C461D4607D0013CEDE7034603F881
:10359800016B9A071D46F7D1032C52D9CEB246EAE1
:1035A80006270F2C47EA07432DD9A4F11002174626
:1035B8000F2FC2F300162B606B60AB60EB6005F158
:1035C800100216D93EB1103F136053609360D36068
:1035D80010320F2F0DD9203F02F1100613605360EF
:1035E8009360D360136153619361D36120320F2FCD
:1035F800F1D8A4F1100222F00F0204F00F041032E7
:10360800032C15441DD9271F3E462A46032E42F88F
:10361800043BC7F380070DD927B1043E032E42F8B7
:10362800043B07D91746083E47F8043B53603A1D48
:10363800032EF7D8231F23F00302131D04F00304FD
:10364800ED18B4B12B46C9B203F8011B2C19ED4390
:103658006219A34202F001050BD01DB103F8011B4A
:10366800A34206D01A4602F8011B5970531CA34204
:10367800F8D1F0BC7047054614468DE7024B13B1EC
:10368800024800F049B9704700000000753400088E
:103698002DE9F04F9F4B87B01A68049002F5A4708B
:1036A80003920D4605904FF0010A0399DDF8149036
:1036B800D1F84841002C43D06268B2F1010838D4EF
:1036C80004F1880B1F320BEB820308F0010C002D6C
:1036D80000F08C805BF82260AE4200F087801E1FED
:1036E80008F1FF37B8F1000F23D0BCF1000F0BD061
:1036F800002D00F0A28053F8043CAB4200F09D80FE
:10370800013F043E7B1C14D0B846E5B13768AF4290
:1037180019D008F1FF37A6F10408002D3FD056F85C
:10372800046CAE423BD0A8F1040607F1FF38002F25
:10373800EBD140F20002C0F20002002A40F0DA8029
:1037480007B0BDE8F08F6168CBEB0602A0184F1EEA
:10375800474550F8783C00F09280002240F8782CD9
:10376800002BD6D0D4F8881167680AFA08F0084206
:103778003AD0D4F88C21104240F09780049856F83B
:10378800801C98476368BB428FD1D9F80010A142CA
:103798008BD108F1FF37A6F10408002DBFD163686B
:1037A800CBEB0800591E2218B94252F8783C69D070
:1037B800002642F8786C002BB5D0D4F888016668EA
:1037C8000AFA07F2024236D0D4F88C110A4270D0B5
:1037D80058F8800C98476368B3427FF466AFD9F80D
:1037E8000000A0429FD060E79847CBE76268CBEB28
:1037F8000300561E2118464551F8782C70D0002039
:1038080041F8780C002A3FF46AAFD4F8880166685A
:103818000AFA08F1014237D0D4F88C01014255D197
:1038280053F8801C04980293CDF804C09047029B7B
:10383800DDF804C02FE09847CDE76168CBEB0600C0
:103848002218481EB84252F8783C4CD0002142F861
:10385800781C002B3FF454AFD4F88801D4F80480C6
:103868000AFA07F2024229D19847636843457FF470
:103878001CAFD9F80000A0423FF442AF15E7C4F8E6
:1038880004806DE7676096E70293CDF804C090471F
:10389800029BDDF804C06268B2427FF406AFD9F833
:1038A8000010A1423FF41BAFFFE656F8800C984782
:1038B80068E7049858F8801C98478CE7D4F88C116E
:1038C8000A4212D056F8800C9847CEE753F8800C7D
:1038D8000293CDF804C09047029BDDF804C0DAE7F4
:1038E800C4F804808EE76760B3E7049856F8801C34
:1038F8009847BAE7616849B9236843B12046C9F8CF
:103908000030AFF30080D9F80040D3E62368A14621
:103918001C46CFE63C3D000801460020024603460F
:10392800FFF73EBD43EC7F3F0000803F43EC7F3F05
:103938000FB17F3F6D4E7F3F6DC47E3F24137E3FA6
:10394800AC3A7D3F283B7C3FBE147B3F9DC7793F07
:10395800F853783F07BA763F0BFA743F4714733F22
:103968000809713F9ED86E3F5E836C3FA7096A3F86
:10397800D86B673F59AA643F98C5613F05BE5E3F53
:103988001A945B3F5348583F31DB543F3D4D513FFC
:10399800029F4D3F12D1493F03E4453F70D8413F54
:1039A800F9AE3D3F4268393FF304353FBB85303FB0
:1039B8004AEB2B3F5636273F9967223FD17F1D3F61
:1039C800C07F183F2A68133FDA390E3F9BF5083F3E
:1039D8003D9C033F275DFC3EEA5AF13E7533E63EC7
:1039E80080E8DA3ECA7BCF3E15EFC33E2A44B83E94
:1039F800D47CAC3EE59AA03E31A0943E938E883E9E
:103A0800CCCF783E135C603EC2C5473EA2102F3E25
:103A18008340163E73B2FA3D36BDC83D05A9963DB2
:103A280030FB483DB00AC93C0BA88C24B00AC9BC7D
:103A380030FB48BD05A996BD36BDC8BD73B2FABDF9
:103A4800834016BEA2102FBEC2C547BE135C60BE1F
:103A5800CCCF78BE938E88BE31A094BEE59AA0BE26
:103A6800D47CACBE2A44B8BE15EFC3BECA7BCFBE59
:103A780080E8DABE7533E6BEEA5AF1BE275DFCBEC1
:103A88003D9C03BF9BF508BFDA390EBF2A6813BFF8
:103A9800C07F18BFD17F1DBF996722BF563627BF89
:103AA8004AEB2BBFBB8530BFF30435BF426839BF33
:103AB800F9AE3DBF70D841BF03E445BF12D149BF3D
:103AC800029F4DBF3D4D51BF31DB54BF534858BFD6
:103AD8001A945BBF05BE5EBF98C561BF59AA64BF93
:103AE800D86B67BFA7096ABF5E836CBF9ED86EBFDD
:103AF800080971BF471473BF0BFA74BF07BA76BFC2
:103B0800F85378BF9DC779BFBE147BBF283B7CBFE5
:103B1800AC3A7DBF24137EBF6DC47EBF6D4E7FBFA0
:103B28000FB17FBF43EC7FBF000080BF43EC7FBF76
:103B38000FB17FBF6D4E7FBF6DC47EBF24137EBFA4
:103B4800AC3A7DBF283B7CBFBE147BBF9DC779BF05
:103B5800F85378BF07BA76BF0BFA74BF471473BF20
:103B6800080971BF9ED86EBF5E836CBFA7096ABF84
:103B7800D86B67BF59AA64BF98C561BF05BE5EBF51
:103B88001A945BBF534858BF31DB54BF3D4D51BFFA
:103B9800029F4DBF12D149BF03E445BF70D841BF52
:103BA800F9AE3DBF426839BFF30435BFBB8530BFAE
:103BB8004AEB2BBF563627BF996722BFD17F1DBF5F
:103BC800C07F18BF2A6813BFDA390EBF9BF508BF3C
:103BD8003D9C03BF275DFCBEEA5AF1BE7533E6BEC5
:103BE80080E8DABECA7BCFBE15EFC3BE2A44B8BE92
:103BF800D47CACBEE59AA0BE31A094BE938E88BE9C
:103C0800CCCF78BE135C60BEC2C547BEA2102FBE23
:103C1800834016BE73B2FABD36BDC8BD05A996BDB0
:103C280030FB48BDB00AC9BC372354A5B00AC93C0B
:103C380030FB483D05A9963D36BDC83D73B2FA3DF7
:103C48008340163EA2102F3EC2C5473E135C603E1D
:103C5800CCCF783E938E883E31A0943EE59AA03E24
:103C6800D47CAC3E2A44B83E15EFC33ECA7BCF3E57
:103C780080E8DA3E7533E63EEA5AF13E275DFC3EBF
:103C88003D9C033F9BF5083FDA390E3F2A68133FF6
:103C9800C07F183FD17F1D3F9967223F5636273F87
:103CA8004AEB2B3FBB85303FF304353F4268393F31
:103CB800F9AE3D3F70D8413F03E4453F12D1493F3B
:103CC800029F4D3F3D4D513F31DB543F5348583FD4
:103CD8001A945B3F05BE5E3F98C5613F59AA643F91
:103CE800D86B673FA7096A3F5E836C3F9ED86E3FDB
:103CF8000809713F4714733F0BFA743F07BA763FC0
:103D0800F853783F9DC7793FBE147B3F283B7C3FE3
:103D1800AC3A7D3F24137E3F6DC47E3F6D4E7F3F9E
:103D28000FB17F3F43EC7F3F0000803F43EC7F3F74
:103D3800430000003000002000000000F8B500BF7C
:103D4800F8BC08BC9E467047F8B500BFF8BC08BC74
:043D58009E467047CC
:083D5C0080C4FF7F010000009C
:083D640085360008AD010008DE
:043D6C0089010008C1
:103D70000000000000000000000000000102030439
:103D800006070809007A030A000000000102030484
:103D900001020304060708090010000000000000EB
:103DA000000000001C03002084030020EC0300201E
:103DB0000000000000000000000000000000000003
:103DC00000000000000000000000000000000000F3
:103DD00000000000383D0008000000000000000066
:103DE00000000000000000000000000000000000D3
:103DF00000000000000000000000000000000000C3
:103E000000000000000000000000000000000000B2
:103E100000000000000000000000000000000000A2
:103E20000000000000000000000000000000000092
:103E30000000000000000000000000000000000082
:103E40000000000000000000010000000000000071
:103E50000E33CDAB34126DE6ECDE05000B00000036
:103E60000000000000000000000000000000000052
:103E70000000000000000000000000000000000042
:103E80000000000000000000000000000000000032
:103E90000000000000000000000000000000000022
:0C41C000000000000000000030000020A3
:0441CC0000000000EF
:040000050800327944
:00000001FF
